{
  "contractName": "Charity",
  "abi": [
    {
      "constant": true,
      "inputs": [
        {
          "name": "",
          "type": "uint256"
        }
      ],
      "name": "organizations",
      "outputs": [
        {
          "name": "uid",
          "type": "uint256"
        },
        {
          "name": "name",
          "type": "string"
        },
        {
          "name": "balance",
          "type": "uint256"
        }
      ],
      "payable": false,
      "stateMutability": "view",
      "type": "function",
      "signature": "0xe792dd8a"
    },
    {
      "constant": true,
      "inputs": [],
      "name": "organizationCount",
      "outputs": [
        {
          "name": "",
          "type": "uint256"
        }
      ],
      "payable": false,
      "stateMutability": "view",
      "type": "function",
      "signature": "0xf1c62104"
    },
    {
      "constant": true,
      "inputs": [],
      "name": "giver",
      "outputs": [
        {
          "name": "",
          "type": "string"
        }
      ],
      "payable": false,
      "stateMutability": "view",
      "type": "function",
      "signature": "0xfb775b46"
    },
    {
      "inputs": [],
      "payable": false,
      "stateMutability": "nonpayable",
      "type": "constructor",
      "signature": "constructor"
    },
    {
      "constant": false,
      "inputs": [
        {
          "name": "_name",
          "type": "string"
        }
      ],
      "name": "addOrganization",
      "outputs": [],
      "payable": false,
      "stateMutability": "nonpayable",
      "type": "function",
      "signature": "0x710de504"
    },
    {
      "constant": false,
      "inputs": [
        {
          "name": "_uid",
          "type": "uint256"
        },
        {
          "name": "amount",
          "type": "uint256"
        }
      ],
      "name": "donate",
      "outputs": [],
      "payable": false,
      "stateMutability": "nonpayable",
      "type": "function",
      "signature": "0x0cdd53f6"
    }
  ],
  "bytecode": "0x608060405234801561001057600080fd5b5061005e6040805190810160405280600681526020017f6a6f6e67756e00000000000000000000000000000000000000000000000000008152506100fd640100000000026401000000009004565b6100ab6040805190810160405280600581526020017f6d69776f6e0000000000000000000000000000000000000000000000000000008152506100fd640100000000026401000000009004565b6100f86040805190810160405280600881526020017f73656f79656f6e670000000000000000000000000000000000000000000000008152506100fd640100000000026401000000009004565b61021f565b6060604051908101604052806001548152602001828152602001600081525060026000600154815260200190815260200160002060008201518160000155602082015181600101908051906020019061015792919061017a565b506040820151816002015590505060016000815480929190600101919050555050565b828054600181600116156101000203166002900490600052602060002090601f016020900481019282601f106101bb57805160ff19168380011785556101e9565b828001600101855582156101e9579182015b828111156101e85782518255916020019190600101906101cd565b5b5090506101f691906101fa565b5090565b61021c91905b80821115610218576000816000905550600101610200565b5090565b90565b6105d88061022e6000396000f3fe60806040526004361061006d576000357c0100000000000000000000000000000000000000000000000000000000900463ffffffff1680630cdd53f614610072578063710de504146100b7578063e792dd8a1461017f578063f1c6210414610241578063fb775b461461026c575b600080fd5b34801561007e57600080fd5b506100b56004803603604081101561009557600080fd5b8101908080359060200190929190803590602001909291905050506102fc565b005b3480156100c357600080fd5b5061017d600480360360208110156100da57600080fd5b81019080803590602001906401000000008111156100f757600080fd5b82018360208201111561010957600080fd5b8035906020019184600183028401116401000000008311171561012b57600080fd5b91908080601f016020809104026020016040519081016040528093929190818152602001838380828437600081840152601f19601f820116905080830192505050505050509192919290505050610324565b005b34801561018b57600080fd5b506101b8600480360360208110156101a257600080fd5b81019080803590602001909291905050506103a1565b6040518084815260200180602001838152602001828103825284818151815260200191508051906020019080838360005b838110156102045780820151818401526020810190506101e9565b50505050905090810190601f1680156102315780820380516001836020036101000a031916815260200191505b5094505050505060405180910390f35b34801561024d57600080fd5b50610256610463565b6040518082815260200191505060405180910390f35b34801561027857600080fd5b50610281610469565b6040518080602001828103825283818151815260200191508051906020019080838360005b838110156102c15780820151818401526020810190506102a6565b50505050905090810190601f1680156102ee5780820380516001836020036101000a031916815260200191505b509250505060405180910390f35b8060026000848152602001908152602001600020600201600082825401925050819055505050565b6060604051908101604052806001548152602001828152602001600081525060026000600154815260200190815260200160002060008201518160000155602082015181600101908051906020019061037e929190610507565b506040820151816002015590505060016000815480929190600101919050555050565b6002602052806000526040600020600091509050806000015490806001018054600181600116156101000203166002900480601f0160208091040260200160405190810160405280929190818152602001828054600181600116156101000203166002900480156104535780601f1061042857610100808354040283529160200191610453565b820191906000526020600020905b81548152906001019060200180831161043657829003601f168201915b5050505050908060020154905083565b60015481565b60008054600181600116156101000203166002900480601f0160208091040260200160405190810160405280929190818152602001828054600181600116156101000203166002900480156104ff5780601f106104d4576101008083540402835291602001916104ff565b820191906000526020600020905b8154815290600101906020018083116104e257829003601f168201915b505050505081565b828054600181600116156101000203166002900490600052602060002090601f016020900481019282601f1061054857805160ff1916838001178555610576565b82800160010185558215610576579182015b8281111561057557825182559160200191906001019061055a565b5b5090506105839190610587565b5090565b6105a991905b808211156105a557600081600090555060010161058d565b5090565b9056fea165627a7a723058204b40ab1474f8c4cec61d2c4392fe2b30a161076642b877e17bcef47781fa63940029",
  "source": "pragma solidity ^0.5.0;\r\n\r\ncontract Charity{\r\n    string public giver;\r\n\r\n    struct Organization{\r\n        uint uid;\r\n        string name;\r\n        uint balance;\r\n    }\r\n\r\n    uint public organizationCount;\r\n\r\n    mapping(uint=>Organization) public organizations;\r\n\r\n    function addOrganization(string memory _name) public{\r\n        organizations[organizationCount]=Organization(organizationCount,_name,0);\r\n        organizationCount++;\r\n    }\r\n\r\n    constructor() public {\r\n        addOrganization('jongun');\r\n        addOrganization('miwon');\r\n        addOrganization('seoyeong');\r\n    }\r\n\r\n    function donate(uint _uid,uint amount) public{\r\n        organizations[_uid].balance+=amount;\r\n    }\r\n\r\n    \r\n}",
  "sourcePath": "C:/Users/82107/Desktop/gp2/charity/contracts/Charity.sol",
  "compiler": {
    "name": "solc",
    "version": "0.5.0+commit.1d4f565a.Emscripten.clang"
  },
  "schemaVersion": "3.0.1",
  "updatedAt": "2021-08-30T12:30:14.757Z",
  "devdoc": {
    "methods": {}
  },
  "userdoc": {
    "methods": {}
  }
}