{
  "contractName": "Charity",
  "abi": [
    {
      "constant": true,
      "inputs": [],
      "name": "owner",
      "outputs": [
        {
          "name": "",
          "type": "address"
        }
      ],
      "payable": false,
      "stateMutability": "view",
      "type": "function",
      "signature": "0x8da5cb5b"
    },
    {
      "constant": true,
      "inputs": [
        {
          "name": "",
          "type": "uint256"
        }
      ],
      "name": "organizations",
      "outputs": [
        {
          "name": "uid",
          "type": "uint256"
        },
        {
          "name": "name",
          "type": "string"
        },
        {
          "name": "balance",
          "type": "uint256"
        },
        {
          "name": "addr",
          "type": "address"
        }
      ],
      "payable": false,
      "stateMutability": "view",
      "type": "function",
      "signature": "0xe792dd8a"
    },
    {
      "constant": true,
      "inputs": [],
      "name": "organizationCount",
      "outputs": [
        {
          "name": "",
          "type": "uint256"
        }
      ],
      "payable": false,
      "stateMutability": "view",
      "type": "function",
      "signature": "0xf1c62104"
    },
    {
      "inputs": [],
      "payable": false,
      "stateMutability": "nonpayable",
      "type": "constructor",
      "signature": "constructor"
    },
    {
      "anonymous": false,
      "inputs": [
        {
          "indexed": true,
          "name": "uid",
          "type": "uint256"
        }
      ],
      "name": "donateEvent",
      "type": "event",
      "signature": "0x8b4a3758b2bef1c1c7d8eeb1a11a1cfd46f62c9988018654c046939096706794"
    },
    {
      "constant": false,
      "inputs": [
        {
          "name": "_name",
          "type": "string"
        },
        {
          "name": "_addr",
          "type": "address"
        }
      ],
      "name": "addOrganization",
      "outputs": [],
      "payable": false,
      "stateMutability": "nonpayable",
      "type": "function",
      "signature": "0x9475c163"
    },
    {
      "constant": true,
      "inputs": [],
      "name": "getBalance",
      "outputs": [
        {
          "name": "",
          "type": "uint256"
        }
      ],
      "payable": false,
      "stateMutability": "view",
      "type": "function",
      "signature": "0x12065fe0"
    },
    {
      "constant": false,
      "inputs": [
        {
          "name": "_uid",
          "type": "uint256"
        },
        {
          "name": "amount",
          "type": "uint256"
        }
      ],
      "name": "donate",
      "outputs": [],
      "payable": true,
      "stateMutability": "payable",
      "type": "function",
      "signature": "0x0cdd53f6"
    },
    {
      "constant": false,
      "inputs": [
        {
          "name": "to",
          "type": "address"
        },
        {
          "name": "amount",
          "type": "uint256"
        }
      ],
      "name": "send",
      "outputs": [],
      "payable": true,
      "stateMutability": "payable",
      "type": "function",
      "signature": "0xd0679d34"
    },
    {
      "constant": false,
      "inputs": [],
      "name": "withdraw",
      "outputs": [],
      "payable": false,
      "stateMutability": "nonpayable",
      "type": "function",
      "signature": "0x3ccfd60b"
    }
  ],
  "bytecode": "0x608060405234801561001057600080fd5b50336000806101000a81548173ffffffffffffffffffffffffffffffffffffffff021916908373ffffffffffffffffffffffffffffffffffffffff1602179055506100b36040805190810160405280600681526020017f6a6f6e67756e00000000000000000000000000000000000000000000000000008152507379a9fcec3a9f72251d4ce139660dbbc691f8bde661017c640100000000026401000000009004565b6101156040805190810160405280600581526020017f6d69776f6e00000000000000000000000000000000000000000000000000000081525073d884590a3ab11a08d783bf90d98c43ac4d7ed87c61017c640100000000026401000000009004565b6101776040805190810160405280600881526020017f73656f79656f6e670000000000000000000000000000000000000000000000008152507336973fa3d93c48b6b9dcf859641a427e37a9952a61017c640100000000026401000000009004565b610302565b6080604051908101604052806001548152602001838152602001600081526020018273ffffffffffffffffffffffffffffffffffffffff168152506002600060015481526020019081526020016000206000820151816000015560208201518160010190805190602001906101f292919061025d565b506040820151816002015560608201518160030160006101000a81548173ffffffffffffffffffffffffffffffffffffffff021916908373ffffffffffffffffffffffffffffffffffffffff1602179055509050506001600081548092919060010191905055505050565b828054600181600116156101000203166002900490600052602060002090601f016020900481019282601f1061029e57805160ff19168380011785556102cc565b828001600101855582156102cc579182015b828111156102cb5782518255916020019190600101906102b0565b5b5090506102d991906102dd565b5090565b6102ff91905b808211156102fb5760008160009055506001016102e3565b5090565b90565b6108da806103116000396000f3fe60806040526004361061008e576000357c0100000000000000000000000000000000000000000000000000000000900463ffffffff1680630cdd53f61461009357806312065fe0146100cb5780633ccfd60b146100f65780638da5cb5b1461010d5780639475c16314610164578063d0679d341461024c578063e792dd8a1461029a578063f1c621041461038f575b600080fd5b6100c9600480360360408110156100a957600080fd5b8101908080359060200190929190803590602001909291905050506103ba565b005b3480156100d757600080fd5b506100e06104a5565b6040518082815260200191505060405180910390f35b34801561010257600080fd5b5061010b6104ea565b005b34801561011957600080fd5b50610122610574565b604051808273ffffffffffffffffffffffffffffffffffffffff1673ffffffffffffffffffffffffffffffffffffffff16815260200191505060405180910390f35b34801561017057600080fd5b5061024a6004803603604081101561018757600080fd5b81019080803590602001906401000000008111156101a457600080fd5b8201836020820111156101b657600080fd5b803590602001918460018302840111640100000000831117156101d857600080fd5b91908080601f016020809104026020016040519081016040528093929190818152602001838380828437600081840152601f19601f820116905080830192505050505050509192919290803573ffffffffffffffffffffffffffffffffffffffff169060200190929190505050610599565b005b6102986004803603604081101561026257600080fd5b81019080803573ffffffffffffffffffffffffffffffffffffffff1690602001909291908035906020019092919050505061067a565b005b3480156102a657600080fd5b506102d3600480360360208110156102bd57600080fd5b810190808035906020019092919050505061071b565b60405180858152602001806020018481526020018373ffffffffffffffffffffffffffffffffffffffff1673ffffffffffffffffffffffffffffffffffffffff168152602001828103825285818151815260200191508051906020019080838360005b83811015610351578082015181840152602081019050610336565b50505050905090810190601f16801561037e5780820380516001836020036101000a031916815260200191505b509550505050505060405180910390f35b34801561039b57600080fd5b506103a4610803565b6040518082815260200191505060405180910390f35b3373ffffffffffffffffffffffffffffffffffffffff166000809054906101000a900473ffffffffffffffffffffffffffffffffffffffff1673ffffffffffffffffffffffffffffffffffffffff1614156104a1578060026000848152602001908152602001600020600201600082825401925050819055506104736002600084815260200190815260200160002060030160009054906101000a900473ffffffffffffffffffffffffffffffffffffffff168261067a565b817f8b4a3758b2bef1c1c7d8eeb1a11a1cfd46f62c9988018654c04693909670679460405160405180910390a25b5050565b6000806000809054906101000a900473ffffffffffffffffffffffffffffffffffffffff1690508073ffffffffffffffffffffffffffffffffffffffff163191505090565b3373ffffffffffffffffffffffffffffffffffffffff166000809054906101000a900473ffffffffffffffffffffffffffffffffffffffff1673ffffffffffffffffffffffffffffffffffffffff161415610572576105716000809054906101000a900473ffffffffffffffffffffffffffffffffffffffff1661056c6104a5565b61067a565b5b565b6000809054906101000a900473ffffffffffffffffffffffffffffffffffffffff1681565b6080604051908101604052806001548152602001838152602001600081526020018273ffffffffffffffffffffffffffffffffffffffff1681525060026000600154815260200190815260200160002060008201518160000155602082015181600101908051906020019061060f929190610809565b506040820151816002015560608201518160030160006101000a81548173ffffffffffffffffffffffffffffffffffffffff021916908373ffffffffffffffffffffffffffffffffffffffff1602179055509050506001600081548092919060010191905055505050565b3373ffffffffffffffffffffffffffffffffffffffff166000809054906101000a900473ffffffffffffffffffffffffffffffffffffffff1673ffffffffffffffffffffffffffffffffffffffff161415610717578173ffffffffffffffffffffffffffffffffffffffff166108fc829081150290604051600060405180830381858888f19350505050158015610715573d6000803e3d6000fd5b505b5050565b6002602052806000526040600020600091509050806000015490806001018054600181600116156101000203166002900480601f0160208091040260200160405190810160405280929190818152602001828054600181600116156101000203166002900480156107cd5780601f106107a2576101008083540402835291602001916107cd565b820191906000526020600020905b8154815290600101906020018083116107b057829003601f168201915b5050505050908060020154908060030160009054906101000a900473ffffffffffffffffffffffffffffffffffffffff16905084565b60015481565b828054600181600116156101000203166002900490600052602060002090601f016020900481019282601f1061084a57805160ff1916838001178555610878565b82800160010185558215610878579182015b8281111561087757825182559160200191906001019061085c565b5b5090506108859190610889565b5090565b6108ab91905b808211156108a757600081600090555060010161088f565b5090565b9056fea165627a7a72305820193bfa4689159200806a5eccab3dc5524e8b3207cbe1caf8b33e4a1ea45a14090029",
  "source": "pragma solidity ^0.5.0;\r\n\r\n//import web3;\r\n\r\n\r\ncontract Charity{\r\n    address payable public owner;\r\n\r\n    struct Organization{\r\n        uint uid;\r\n        string name;\r\n        uint balance;\r\n        address payable addr;\r\n    }\r\n\r\n    modifier ownerOnly(){\r\n        if(owner==msg.sender)\r\n        {_;}\r\n    }\r\n\r\n    uint public organizationCount;\r\n\r\n    mapping(uint=>Organization) public organizations;\r\n\r\n    function addOrganization(string memory _name, address payable _addr) public{\r\n        organizations[organizationCount]=Organization(organizationCount,_name,0,_addr);\r\n        organizationCount++;\r\n    }\r\n\r\n    constructor() public {\r\n        owner=msg.sender;\r\n        addOrganization('jongun',0x79a9fcEc3A9f72251d4Ce139660dbbc691f8Bde6);\r\n        addOrganization('miwon',0xd884590a3AB11A08D783BF90d98c43aC4d7ed87c);\r\n        addOrganization('seoyeong',0x36973fA3D93c48B6B9dcf859641a427e37A9952a);\r\n    }\r\n\r\n    event donateEvent(uint indexed uid);\r\n\r\n    function getBalance() public view returns (uint){\r\n        address contractAddress=owner;\r\n        return contractAddress.balance;\r\n    }\r\n\r\n    function donate(uint _uid,uint amount) public payable ownerOnly {\r\n        organizations[_uid].balance+=amount;\r\n        send(organizations[_uid].addr,amount);\r\n        emit donateEvent(_uid);\r\n    }\r\n\r\n    function send(address payable to, uint amount) public payable ownerOnly{\r\n        to.transfer(amount);\r\n    }\r\n\r\n    function withdraw() public ownerOnly {\r\n       send(owner,getBalance());\r\n    }\r\n}",
  "sourcePath": "C:/Users/82107/Desktop/gp2/charity/contracts/Charity.sol",
  "compiler": {
    "name": "solc",
    "version": "0.5.0+commit.1d4f565a.Emscripten.clang"
  },
  "schemaVersion": "3.0.1",
  "updatedAt": "2021-08-31T11:03:36.687Z",
  "devdoc": {
    "methods": {}
  },
  "userdoc": {
    "methods": {}
  }
}