{
  "contractName": "Charity",
  "abi": [
    {
      "constant": true,
      "inputs": [],
      "name": "owner",
      "outputs": [
        {
          "name": "",
          "type": "address"
        }
      ],
      "payable": false,
      "stateMutability": "view",
      "type": "function",
      "signature": "0x8da5cb5b"
    },
    {
      "constant": true,
      "inputs": [
        {
          "name": "",
          "type": "uint256"
        }
      ],
      "name": "organizations",
      "outputs": [
        {
          "name": "uid",
          "type": "uint256"
        },
        {
          "name": "name",
          "type": "string"
        },
        {
          "name": "addr",
          "type": "address"
        }
      ],
      "payable": false,
      "stateMutability": "view",
      "type": "function",
      "signature": "0xe792dd8a"
    },
    {
      "constant": true,
      "inputs": [],
      "name": "organizationCount",
      "outputs": [
        {
          "name": "",
          "type": "uint256"
        }
      ],
      "payable": false,
      "stateMutability": "view",
      "type": "function",
      "signature": "0xf1c62104"
    },
    {
      "inputs": [],
      "payable": false,
      "stateMutability": "nonpayable",
      "type": "constructor",
      "signature": "constructor"
    },
    {
      "anonymous": false,
      "inputs": [
        {
          "indexed": true,
          "name": "uid",
          "type": "uint256"
        }
      ],
      "name": "donateEvent",
      "type": "event",
      "signature": "0x8b4a3758b2bef1c1c7d8eeb1a11a1cfd46f62c9988018654c046939096706794"
    },
    {
      "constant": false,
      "inputs": [
        {
          "name": "_name",
          "type": "string"
        },
        {
          "name": "_addr",
          "type": "address"
        }
      ],
      "name": "addOrganization",
      "outputs": [],
      "payable": false,
      "stateMutability": "nonpayable",
      "type": "function",
      "signature": "0x9475c163"
    },
    {
      "constant": true,
      "inputs": [],
      "name": "getBalance",
      "outputs": [
        {
          "name": "",
          "type": "uint256"
        }
      ],
      "payable": false,
      "stateMutability": "view",
      "type": "function",
      "signature": "0x12065fe0"
    },
    {
      "constant": false,
      "inputs": [
        {
          "name": "_uid",
          "type": "uint256"
        },
        {
          "name": "amount",
          "type": "uint256"
        }
      ],
      "name": "donate",
      "outputs": [],
      "payable": true,
      "stateMutability": "payable",
      "type": "function",
      "signature": "0x0cdd53f6"
    },
    {
      "constant": false,
      "inputs": [
        {
          "name": "to",
          "type": "address"
        },
        {
          "name": "amount",
          "type": "uint256"
        }
      ],
      "name": "send",
      "outputs": [],
      "payable": true,
      "stateMutability": "payable",
      "type": "function",
      "signature": "0xd0679d34"
    },
    {
      "constant": false,
      "inputs": [],
      "name": "withdraw",
      "outputs": [],
      "payable": false,
      "stateMutability": "nonpayable",
      "type": "function",
      "signature": "0x3ccfd60b"
    }
  ],
  "bytecode": "0x608060405234801561001057600080fd5b50336000806101000a81548173ffffffffffffffffffffffffffffffffffffffff021916908373ffffffffffffffffffffffffffffffffffffffff1602179055506100b36040805190810160405280600681526020017f6a6f6e67756e000000000000000000000000000000000000000000000000000081525073f28d02b387bee6e17cca1e7e09cf70df7e51116a61017c640100000000026401000000009004565b6101156040805190810160405280600581526020017f6d69776f6e00000000000000000000000000000000000000000000000000000081525073bb85336a6c3fc59ffdc85534174a26d789933fac61017c640100000000026401000000009004565b6101776040805190810160405280600881526020017f73656f79656f6e67000000000000000000000000000000000000000000000000815250738fb8bec81d3b5d207391667be7b767688899924461017c640100000000026401000000009004565b6102f1565b60606040519081016040528060015481526020018381526020018273ffffffffffffffffffffffffffffffffffffffff168152506002600060015481526020019081526020016000206000820151816000015560208201518160010190805190602001906101eb92919061024c565b5060408201518160020160006101000a81548173ffffffffffffffffffffffffffffffffffffffff021916908373ffffffffffffffffffffffffffffffffffffffff1602179055509050506001600081548092919060010191905055505050565b828054600181600116156101000203166002900490600052602060002090601f016020900481019282601f1061028d57805160ff19168380011785556102bb565b828001600101855582156102bb579182015b828111156102ba57825182559160200191906001019061029f565b5b5090506102c891906102cc565b5090565b6102ee91905b808211156102ea5760008160009055506001016102d2565b5090565b90565b6107ec806103006000396000f3fe60806040526004361061008e576000357c0100000000000000000000000000000000000000000000000000000000900463ffffffff1680630cdd53f61461009357806312065fe0146100cb5780633ccfd60b146100f65780638da5cb5b1461010d5780639475c16314610164578063d0679d341461024c578063e792dd8a1461029a578063f1c6210414610388575b600080fd5b6100c9600480360360408110156100a957600080fd5b8101908080359060200190929190803590602001909291905050506103b3565b005b3480156100d757600080fd5b506100e0610424565b6040518082815260200191505060405180910390f35b34801561010257600080fd5b5061010b610469565b005b34801561011957600080fd5b506101226104f3565b604051808273ffffffffffffffffffffffffffffffffffffffff1673ffffffffffffffffffffffffffffffffffffffff16815260200191505060405180910390f35b34801561017057600080fd5b5061024a6004803603604081101561018757600080fd5b81019080803590602001906401000000008111156101a457600080fd5b8201836020820111156101b657600080fd5b803590602001918460018302840111640100000000831117156101d857600080fd5b91908080601f016020809104026020016040519081016040528093929190818152602001838380828437600081840152601f19601f820116905080830192505050505050509192919290803573ffffffffffffffffffffffffffffffffffffffff169060200190929190505050610518565b005b6102986004803603604081101561026257600080fd5b81019080803573ffffffffffffffffffffffffffffffffffffffff169060200190929190803590602001909291905050506105e8565b005b3480156102a657600080fd5b506102d3600480360360208110156102bd57600080fd5b8101908080359060200190929190505050610633565b60405180848152602001806020018373ffffffffffffffffffffffffffffffffffffffff1673ffffffffffffffffffffffffffffffffffffffff168152602001828103825284818151815260200191508051906020019080838360005b8381101561034b578082015181840152602081019050610330565b50505050905090810190601f1680156103785780820380516001836020036101000a031916815260200191505b5094505050505060405180910390f35b34801561039457600080fd5b5061039d610715565b6040518082815260200191505060405180910390f35b6103f36002600084815260200190815260200160002060020160009054906101000a900473ffffffffffffffffffffffffffffffffffffffff16826105e8565b817f8b4a3758b2bef1c1c7d8eeb1a11a1cfd46f62c9988018654c04693909670679460405160405180910390a25050565b6000806000809054906101000a900473ffffffffffffffffffffffffffffffffffffffff1690508073ffffffffffffffffffffffffffffffffffffffff163191505090565b3373ffffffffffffffffffffffffffffffffffffffff166000809054906101000a900473ffffffffffffffffffffffffffffffffffffffff1673ffffffffffffffffffffffffffffffffffffffff1614156104f1576104f06000809054906101000a900473ffffffffffffffffffffffffffffffffffffffff166104eb610424565b6105e8565b5b565b6000809054906101000a900473ffffffffffffffffffffffffffffffffffffffff1681565b60606040519081016040528060015481526020018381526020018273ffffffffffffffffffffffffffffffffffffffff1681525060026000600154815260200190815260200160002060008201518160000155602082015181600101908051906020019061058792919061071b565b5060408201518160020160006101000a81548173ffffffffffffffffffffffffffffffffffffffff021916908373ffffffffffffffffffffffffffffffffffffffff1602179055509050506001600081548092919060010191905055505050565b8173ffffffffffffffffffffffffffffffffffffffff166108fc829081150290604051600060405180830381858888f1935050505015801561062e573d6000803e3d6000fd5b505050565b6002602052806000526040600020600091509050806000015490806001018054600181600116156101000203166002900480601f0160208091040260200160405190810160405280929190818152602001828054600181600116156101000203166002900480156106e55780601f106106ba576101008083540402835291602001916106e5565b820191906000526020600020905b8154815290600101906020018083116106c857829003601f168201915b5050505050908060020160009054906101000a900473ffffffffffffffffffffffffffffffffffffffff16905083565b60015481565b828054600181600116156101000203166002900490600052602060002090601f016020900481019282601f1061075c57805160ff191683800117855561078a565b8280016001018555821561078a579182015b8281111561078957825182559160200191906001019061076e565b5b509050610797919061079b565b5090565b6107bd91905b808211156107b95760008160009055506001016107a1565b5090565b9056fea165627a7a72305820219b9e6d7e1e4894038babbd6fb30a01f10b59d2e94ce8206971f7c114ed96dd0029",
  "source": "pragma solidity ^0.5.0;\r\n\r\n//import web3;\r\n\r\n\r\ncontract Charity{\r\n    address payable public owner;\r\n\r\n    struct Organization{\r\n        uint uid;\r\n        string name;\r\n        address payable addr;\r\n    }\r\n\r\n    modifier ownerOnly(){\r\n        if(owner==msg.sender)\r\n        {_;}\r\n    }\r\n\r\n    uint public organizationCount;\r\n\r\n    mapping(uint=>Organization) public organizations;\r\n\r\n    function addOrganization(string memory _name, address payable _addr) public{\r\n        organizations[organizationCount]=Organization(organizationCount,_name,_addr);\r\n        organizationCount++;\r\n    }\r\n\r\n    constructor() public {\r\n        owner=msg.sender;\r\n        addOrganization('jongun',0xf28D02B387BeE6e17ccA1E7E09CF70DF7E51116a);\r\n        addOrganization('miwon',0xbB85336a6c3Fc59FFdc85534174a26D789933fAC);\r\n        addOrganization('seoyeong',0x8fB8BEC81d3B5d207391667Be7b7676888999244);\r\n    }\r\n\r\n    event donateEvent(uint indexed uid);\r\n\r\n    function getBalance() public view returns (uint){\r\n        address contractAddress=owner;\r\n        return contractAddress.balance;\r\n    }\r\n\r\n    function donate(uint _uid,uint amount) public payable  {\r\n        send(organizations[_uid].addr,amount);\r\n        emit donateEvent(_uid);\r\n    }\r\n\r\n    function send(address payable to, uint amount) public payable {\r\n        to.transfer(amount);\r\n    }\r\n\r\n    function withdraw() public ownerOnly {\r\n       send(owner,getBalance());\r\n    }\r\n}",
  "sourcePath": "C:/Users/82107/Desktop/gp2/charity/contracts/Charity.sol",
  "compiler": {
    "name": "solc",
    "version": "0.5.0+commit.1d4f565a.Emscripten.clang"
  },
  "schemaVersion": "3.0.1",
  "updatedAt": "2021-09-03T09:48:14.951Z",
  "devdoc": {
    "methods": {}
  },
  "userdoc": {
    "methods": {}
  }
}