{
  "contractName": "Charity",
  "abi": [
    {
      "constant": true,
      "inputs": [],
      "name": "owner",
      "outputs": [
        {
          "name": "",
          "type": "address"
        }
      ],
      "payable": false,
      "stateMutability": "view",
      "type": "function",
      "signature": "0x8da5cb5b"
    },
    {
      "constant": true,
      "inputs": [
        {
          "name": "",
          "type": "uint256"
        }
      ],
      "name": "organizations",
      "outputs": [
        {
          "name": "uid",
          "type": "uint256"
        },
        {
          "name": "name",
          "type": "string"
        },
        {
          "name": "addr",
          "type": "address"
        }
      ],
      "payable": false,
      "stateMutability": "view",
      "type": "function",
      "signature": "0xe792dd8a"
    },
    {
      "constant": true,
      "inputs": [],
      "name": "organizationCount",
      "outputs": [
        {
          "name": "",
          "type": "uint256"
        }
      ],
      "payable": false,
      "stateMutability": "view",
      "type": "function",
      "signature": "0xf1c62104"
    },
    {
      "inputs": [],
      "payable": false,
      "stateMutability": "nonpayable",
      "type": "constructor",
      "signature": "constructor"
    },
    {
      "anonymous": false,
      "inputs": [
        {
          "indexed": false,
          "name": "from",
          "type": "address"
        },
        {
          "indexed": false,
          "name": "to",
          "type": "address"
        },
        {
          "indexed": true,
          "name": "uid",
          "type": "uint256"
        }
      ],
      "name": "donateEvent",
      "type": "event",
      "signature": "0x96b0512e4514717fb30647fd9bdb4ff720b8f46ffe16da2ab0d837e46dfd527f"
    },
    {
      "constant": false,
      "inputs": [
        {
          "name": "_name",
          "type": "string"
        },
        {
          "name": "_addr",
          "type": "address"
        }
      ],
      "name": "addOrganization",
      "outputs": [],
      "payable": false,
      "stateMutability": "nonpayable",
      "type": "function",
      "signature": "0x9475c163"
    },
    {
      "constant": false,
      "inputs": [
        {
          "name": "_uid",
          "type": "uint256"
        }
      ],
      "name": "getName",
      "outputs": [
        {
          "name": "",
          "type": "string"
        }
      ],
      "payable": false,
      "stateMutability": "nonpayable",
      "type": "function",
      "signature": "0x6b8ff574"
    },
    {
      "constant": true,
      "inputs": [],
      "name": "getBalance",
      "outputs": [
        {
          "name": "",
          "type": "uint256"
        }
      ],
      "payable": false,
      "stateMutability": "view",
      "type": "function",
      "signature": "0x12065fe0"
    },
    {
      "constant": false,
      "inputs": [
        {
          "name": "_uid",
          "type": "uint256"
        },
        {
          "name": "amount",
          "type": "uint256"
        }
      ],
      "name": "donate",
      "outputs": [],
      "payable": true,
      "stateMutability": "payable",
      "type": "function",
      "signature": "0x0cdd53f6"
    },
    {
      "constant": false,
      "inputs": [
        {
          "name": "to",
          "type": "address"
        },
        {
          "name": "amount",
          "type": "uint256"
        }
      ],
      "name": "send",
      "outputs": [],
      "payable": true,
      "stateMutability": "payable",
      "type": "function",
      "signature": "0xd0679d34"
    },
    {
      "constant": false,
      "inputs": [],
      "name": "withdraw",
      "outputs": [],
      "payable": false,
      "stateMutability": "nonpayable",
      "type": "function",
      "signature": "0x3ccfd60b"
    }
  ],
  "bytecode": "0x608060405234801561001057600080fd5b50336000806101000a81548173ffffffffffffffffffffffffffffffffffffffff021916908373ffffffffffffffffffffffffffffffffffffffff1602179055506100b36040805190810160405280600681526020017f6a6f6e67756e000000000000000000000000000000000000000000000000000081525073f28d02b387bee6e17cca1e7e09cf70df7e51116a61017c640100000000026401000000009004565b6101156040805190810160405280600581526020017f6d69776f6e00000000000000000000000000000000000000000000000000000081525073bb85336a6c3fc59ffdc85534174a26d789933fac61017c640100000000026401000000009004565b6101776040805190810160405280600881526020017f73656f79656f6e67000000000000000000000000000000000000000000000000815250738fb8bec81d3b5d207391667be7b767688899924461017c640100000000026401000000009004565b6102f1565b60606040519081016040528060015481526020018381526020018273ffffffffffffffffffffffffffffffffffffffff168152506002600060015481526020019081526020016000206000820151816000015560208201518160010190805190602001906101eb92919061024c565b5060408201518160020160006101000a81548173ffffffffffffffffffffffffffffffffffffffff021916908373ffffffffffffffffffffffffffffffffffffffff1602179055509050506001600081548092919060010191905055505050565b828054600181600116156101000203166002900490600052602060002090601f016020900481019282601f1061028d57805160ff19168380011785556102bb565b828001600101855582156102bb579182015b828111156102ba57825182559160200191906001019061029f565b5b5090506102c891906102cc565b5090565b6102ee91905b808211156102ea5760008160009055506001016102d2565b5090565b90565b610a25806103006000396000f3fe608060405260043610610099576000357c0100000000000000000000000000000000000000000000000000000000900463ffffffff1680630cdd53f61461009e57806312065fe0146100d65780633ccfd60b146101015780636b8ff574146101185780638da5cb5b146101cc5780639475c16314610223578063d0679d341461030b578063e792dd8a14610359578063f1c6210414610447575b600080fd5b6100d4600480360360408110156100b457600080fd5b810190808035906020019092919080359060200190929190505050610472565b005b3480156100e257600080fd5b506100eb6105a5565b6040518082815260200191505060405180910390f35b34801561010d57600080fd5b506101166105ea565b005b34801561012457600080fd5b506101516004803603602081101561013b57600080fd5b8101908080359060200190929190505050610674565b6040518080602001828103825283818151815260200191508051906020019080838360005b83811015610191578082015181840152602081019050610176565b50505050905090810190601f1680156101be5780820380516001836020036101000a031916815260200191505b509250505060405180910390f35b3480156101d857600080fd5b506101e161072c565b604051808273ffffffffffffffffffffffffffffffffffffffff1673ffffffffffffffffffffffffffffffffffffffff16815260200191505060405180910390f35b34801561022f57600080fd5b506103096004803603604081101561024657600080fd5b810190808035906020019064010000000081111561026357600080fd5b82018360208201111561027557600080fd5b8035906020019184600183028401116401000000008311171561029757600080fd5b91908080601f016020809104026020016040519081016040528093929190818152602001838380828437600081840152601f19601f820116905080830192505050505050509192919290803573ffffffffffffffffffffffffffffffffffffffff169060200190929190505050610751565b005b6103576004803603604081101561032157600080fd5b81019080803573ffffffffffffffffffffffffffffffffffffffff16906020019092919080359060200190929190505050610821565b005b34801561036557600080fd5b506103926004803603602081101561037c57600080fd5b810190808035906020019092919050505061086c565b60405180848152602001806020018373ffffffffffffffffffffffffffffffffffffffff1673ffffffffffffffffffffffffffffffffffffffff168152602001828103825284818151815260200191508051906020019080838360005b8381101561040a5780820151818401526020810190506103ef565b50505050905090810190601f1680156104375780820380516001836020036101000a031916815260200191505b5094505050505060405180910390f35b34801561045357600080fd5b5061045c61094e565b6040518082815260200191505060405180910390f35b6104b26002600084815260200190815260200160002060020160009054906101000a900473ffffffffffffffffffffffffffffffffffffffff1682610821565b817f96b0512e4514717fb30647fd9bdb4ff720b8f46ffe16da2ab0d837e46dfd527f6000809054906101000a900473ffffffffffffffffffffffffffffffffffffffff166002600086815260200190815260200160002060020160009054906101000a900473ffffffffffffffffffffffffffffffffffffffff16604051808373ffffffffffffffffffffffffffffffffffffffff1673ffffffffffffffffffffffffffffffffffffffff1681526020018273ffffffffffffffffffffffffffffffffffffffff1673ffffffffffffffffffffffffffffffffffffffff1681526020019250505060405180910390a25050565b6000806000809054906101000a900473ffffffffffffffffffffffffffffffffffffffff1690508073ffffffffffffffffffffffffffffffffffffffff163191505090565b3373ffffffffffffffffffffffffffffffffffffffff166000809054906101000a900473ffffffffffffffffffffffffffffffffffffffff1673ffffffffffffffffffffffffffffffffffffffff161415610672576106716000809054906101000a900473ffffffffffffffffffffffffffffffffffffffff1661066c6105a5565b610821565b5b565b6060600260008381526020019081526020016000206001018054600181600116156101000203166002900480601f0160208091040260200160405190810160405280929190818152602001828054600181600116156101000203166002900480156107205780601f106106f557610100808354040283529160200191610720565b820191906000526020600020905b81548152906001019060200180831161070357829003601f168201915b50505050509050919050565b6000809054906101000a900473ffffffffffffffffffffffffffffffffffffffff1681565b60606040519081016040528060015481526020018381526020018273ffffffffffffffffffffffffffffffffffffffff168152506002600060015481526020019081526020016000206000820151816000015560208201518160010190805190602001906107c0929190610954565b5060408201518160020160006101000a81548173ffffffffffffffffffffffffffffffffffffffff021916908373ffffffffffffffffffffffffffffffffffffffff1602179055509050506001600081548092919060010191905055505050565b8173ffffffffffffffffffffffffffffffffffffffff166108fc829081150290604051600060405180830381858888f19350505050158015610867573d6000803e3d6000fd5b505050565b6002602052806000526040600020600091509050806000015490806001018054600181600116156101000203166002900480601f01602080910402602001604051908101604052809291908181526020018280546001816001161561010002031660029004801561091e5780601f106108f35761010080835404028352916020019161091e565b820191906000526020600020905b81548152906001019060200180831161090157829003601f168201915b5050505050908060020160009054906101000a900473ffffffffffffffffffffffffffffffffffffffff16905083565b60015481565b828054600181600116156101000203166002900490600052602060002090601f016020900481019282601f1061099557805160ff19168380011785556109c3565b828001600101855582156109c3579182015b828111156109c25782518255916020019190600101906109a7565b5b5090506109d091906109d4565b5090565b6109f691905b808211156109f25760008160009055506001016109da565b5090565b9056fea165627a7a723058201fe830c77d3e0990c7d3674347dc3387570820e0a58c4d89faa4920e84fc67490029",
  "source": "pragma solidity ^0.5.0;\r\n\r\n//import web3;\r\n\r\n\r\ncontract Charity{\r\n    address payable public owner;\r\n\r\n    struct Organization{\r\n        uint uid;\r\n        string name;\r\n        address payable addr;\r\n    }\r\n\r\n    modifier ownerOnly(){\r\n        if(owner==msg.sender)\r\n        {_;}\r\n    }\r\n    \r\n    uint public organizationCount;\r\n\r\n    mapping(uint=>Organization) public organizations;\r\n\r\n    function addOrganization(string memory _name, address payable _addr) public{\r\n        organizations[organizationCount]=Organization(organizationCount,_name,_addr);\r\n        organizationCount++;\r\n    }\r\n\r\n    constructor() public {\r\n        owner=msg.sender;\r\n        addOrganization('jongun',0xf28D02B387BeE6e17ccA1E7E09CF70DF7E51116a);\r\n        addOrganization('miwon',0xbB85336a6c3Fc59FFdc85534174a26D789933fAC);\r\n        addOrganization('seoyeong',0x8fB8BEC81d3B5d207391667Be7b7676888999244);\r\n    }\r\n\r\n    function getName(uint _uid) public returns(string memory){\r\n        return organizations[_uid].name;\r\n    }\r\n    event donateEvent(address from, address to, uint indexed uid);\r\n\r\n    function getBalance() public view returns (uint){\r\n        address contractAddress=owner;\r\n        return contractAddress.balance;\r\n    }\r\n\r\n    function donate(uint _uid,uint amount) public payable  {\r\n    \r\n        send(organizations[_uid].addr,amount);\r\n        emit donateEvent(owner,organizations[_uid].addr,_uid);\r\n    }\r\n\r\n    function send(address payable to, uint amount) public payable {\r\n        to.transfer(amount);\r\n    }\r\n\r\n    function withdraw() public ownerOnly {\r\n       send(owner,getBalance());\r\n    }\r\n}",
  "sourcePath": "C:/Users/82107/Desktop/gp2/charity/contracts/Charity.sol",
  "compiler": {
    "name": "solc",
    "version": "0.5.0+commit.1d4f565a.Emscripten.clang"
  },
  "schemaVersion": "3.0.1",
  "updatedAt": "2021-10-11T10:05:06.520Z",
  "devdoc": {
    "methods": {}
  },
  "userdoc": {
    "methods": {}
  }
}